:100000008BC0000099C0000097C0000095C00000A0
:1000100093C0000091C000008FC000008DC00000A0
:100020008BC0000089C00000C5C400008FC500005F
:1000300083C0000081C000007FC000007DC00000C0
:100040007BC0000079C0000077C0000075C00000D0
:1000500073C0000071C000006FC000006DC00000E0
:100060006BC0000069C0000067C0000065C00000F0
:1000700063C0000061C000005FC000005DC0000000
:100080005BC0000059C0000057C0000055C0000010
:1000900053C0000051C000004FC000004DC0000020
:1000A0004BC0000049C0000047C0000026034900C3
:1000B000320043002D00540069006E0079002D00CD
:1000C000550053004200200063006C006F006E007A
:1000D000650000000C0364006F006A006F0065009B
:1000E0000000040309040902200001010080320914
:1000F00004000002FFFFFF00070583024000050720
:100100000504024000051201100100000020030454
:1001100031C601000102DC0111241FBECFEFDAE07D
:10012000DEBFCDBF21E0A0E0B1E001C01D92AE3046
:10013000B207E1F7A5D12AC763CFCF93DF93482F4A
:10014000E92F30E020E0C0E8DEE3F22FC901880F9C
:10015000991FBE0102C0769567958A95E2F7CB019B
:10016000642F7E2FFFD660517109DB01B695A795EC
:100170006115724030F02F5F3F4F2430310529F771
:10018000F3E08091BC0084608093BC00F093B900E0
:10019000A093B800DF91CF91089520910B01309189
:1001A0000C012115310529F49091E8009B7790937B
:1001B000E80064E82115310589F4811104C08091BB
:1001C000BC0087FFFCCF8091E80080FF31C08091A8
:1001D000E8008E778093E80080E008959091040114
:1001E000992381F1953051F19091E80093FD28C059
:1001F0009091E80092FFDECF9091F3004091F200E1
:10020000592F452B79F09091F100811108C0409150
:10021000BC0047FFFCCF9093BB006093BC00215013
:10022000310951F79091E8009B779093E800C2CF95
:1002300080910401882331F0853029F683E0089508
:1002400081E0089582E0089520910B0130910C0126
:1002500021153105C1F49091E8009E779093E80054
:1002600040E054EC74E821153105C9F4411117C080
:100270008091E80082FF56C08091E8008B778093E0
:10028000E80080E008956111EBCF882321F094E825
:100290002130310509F094EC9093BC00E1CF9091AE
:1002A0000401992309F44AC0953009F449C090919A
:1002B000E80093FD41C09091E80092FDD9CF909164
:1002C000E80090FFD0CF9091F3009091F2002115BB
:1002D000310511F0903250F041E0903209F040E0E9
:1002E0009091E8009E779093E800BDCF21503109AE
:1002F00040E0611110C04091BC0047FFFCCF40912D
:10030000BB002115310539F0882349F02130310532
:1003100031F47093BC004093F1009F5FD8CF5093AD
:10032000BC00F9CF80910401882341F0853041F071
:100330008091E80083FF9CCF81E0089582E00895DA
:1003400083E008951F93CF93DF9380910501982F49
:100350009076903251F48F7141F48091060188308B
:1003600040F48430E0F58330E9F0DF91CF911F91C4
:1003700008958131D1F78091E800877F8093E8006C
:100380008091BC008B7F8093BC008091070190918D
:100390000801D3DE8EB190E489278EB9DF91CF9129
:1003A0001F915BC28091E800877F8093E800809175
:1003B000E80080FFFCCF809100018093F1008091E4
:1003C000E8008E778093E80076988091E80082FDBF
:1003D000CCCF8091E8008B778093E800F6CF9091A6
:1003E000E800977F9093E800182F1270C0910701E2
:1003F000C17080FF09C069E1809109015ED5882341
:10040000C1F082E080930001D091000181E0D23000
:1004100009F080E0CC2379F0682F812F15DF1123BC
:1004200009F4A3CFD23009F4A0CF84E98093BC00B3
:100430009CCF81E0E7CFB1DEF2CF42E361E883E019
:10044000D8D142E360E884E0D4C184B7877F84BF19
:100450000FB6F894A8958091600088618093600041
:10046000109260000FBE80E890E00FB6F894809381
:100470006100909361000FBE80D284E690E05DCE73
:10048000CDB7DEB7C054D1090FB6F894DEBF0FBEAA
:10049000CDBFDBDF789480E4E82E8E010F5F1F4F25
:1004A00094E0D92E23E0F22EEED4F8018E2D119295
:1004B0008A95E9F7D092E9008091E80082FFF4CFB5
:1004C00050E040E060E470E0C80191D08091E80025
:1004D0008B778093E800F092E90050E040E060E420
:1004E00070E0C80137D08091E8008E778093E800F3
:1004F000DBCF9C01DA01832F99278230910529F106
:100500008330910549F0019791F482E190E026E073
:1005100031E02D933C930895C9019927213061F072
:100520008230910579F0E2EEF0E0892B39F090E02D
:1005300080E030E020E0EDCFE4EDF0E0849190E069
:100540009F01E7CFECEAF0E0F9CF80E290E026EE01
:1005500030E0DFCFAF92BF92CF92DF92FF920F9346
:100560001F93CF93DF936C01EB018A0195D1F82E95
:10057000811123C00115110539F0F80180819181A5
:10058000C81BD90BC80ED91EB12CA12C2097A9F0DD
:100590008091E80085FD21C08091E8008E778093EE
:1005A000E80001151105A1F0F80180819181A80EE4
:1005B000B91EB182A08285E0F82E8F2DDF91CF91F8
:1005C0001F910F91FF90DF90CF90BF90AF90089553
:1005D00063D18823D9F2F82EF0CFF60181916F0113
:1005E0008093F1002197FFEFAF1ABF0ACFCFAF92F0
:1005F000BF92CF92DF92FF920F931F93CF93DF931F
:100600006C01EB018A0148D1F82E811123C001153C
:10061000110539F0F80180819181C81BD90BC80EF2
:10062000D91EB12CA12C2097A9F08091E80085FD5E
:1006300021C08091E8008B778093E80001151105B7
:10064000A1F0F80180819181A80EB91EB182A0822B
:1006500085E0F82E8F2DDF91CF911F910F91FF90A4
:10066000DF90CF90BF90AF90089516D18823D9F234
:10067000F82EF0CF8091F100F60181936F01219760
:10068000FFEFAF1ABF0ACFCFFC01CB0120910B01C6
:1006900030910C012617370790F0009729F420912C
:1006A000E8002E772093E80040E0009751F44111D4
:1006B00008C08091E80082FF31C080E00895C90140
:1006C000F3CF209104012223A9F12530A9F1209133
:1006D000E80023FD2DC02091E80022FDEACF209103
:1006E000E80020FFE2CF3091F3002091F200009764
:1006F00019F02032310558F041E02032310509F07F
:1007000040E02091E8002E772093E800CECF419181
:100710004093F10001972F5F3F4FE9CF8091040193
:10072000882341F0853041F08091E80083FFC1CFFC
:1007300081E0089582E0089583E00895FC01CB01F3
:1007400020910B0130910C012617370790F000978C
:1007500029F42091E8002E772093E80040E00097EC
:1007600051F4411108C08091E80082FF32C080E05E
:100770000895C901F3CF209104012223B1F125305E
:10078000B1F12091E80023FD2EC02091E80022FD68
:10079000EACF2091E80020FFE2CF3091F3002091D2
:1007A000F200009719F02032310558F041E0203274
:1007B000310509F040E02091E8002E772093E80011
:1007C000CECF44914093F100319601972F5F3F4F78
:1007D000E8CF80910401882341F0853041F0809179
:1007E000E80083FFC0CF81E0089582E0089583E0B0
:1007F0000895982F973028F08F708093E90081E05A
:1008000008959093E900242F762F50E0981731F047
:100810007091EC002091ED005091F00021FD02C09C
:100820009F5FE8CF3091EB003E7F3093EB0030913B
:10083000ED003D7F3093ED003091EB00316030935F
:10084000EB007093EC002093ED005093F0002091AA
:10085000EE0027FDE5CF80E008958091050187FF38
:1008600013C08091E80082FF06C08091E8008B777A
:100870008093E80004C0809104018111F2CF0895B3
:10088000809104018823D9F38091E80080FFF8CF9C
:100890008091E8008E77ECCF2091E4003091E50064
:1008A00095E6A9012091EC00822F817020FF06C0FF
:1008B0008091E80080FF06C080E008952091E80064
:1008C00022FD1AC080910401882389F0853089F0C7
:1008D0008091EB0085FD0FC02091E4003091E50090
:1008E00042175307F9F29150E1F684E0089582E04F
:1008F000089583E0089581E008950F931F93CF93A7
:10090000DF934BD052D0C8EDD0E088818F778883B9
:1009100088818068888388818F7D888319BC109244
:10092000040110920301109201011092020100EEE5
:1009300010E0F80180818B7F8083888181608883CB
:1009400042E260E080E055DFE1EEF0E080818E7F02
:100950008083E2EEF0E08081816080838081886026
:100960008083F80180818E7F808388818061888385
:10097000DF91CF911F910F910895E8EDF0E0808114
:100980008F7E8083E7EDF0E080818160808384E06A
:1009900082BF81E080930D01B0CFE8EDF0E080816F
:1009A0008E7F80831092E20008951092DA001092F8
:1009B000E10008951F920F920FB60F9211242F930A
:1009C0003F934F935F936F937F938F939F93AF93D7
:1009D000BF93EF93FF938091E10082FF0AC0809163
:1009E000E20082FF06C08091E1008B7F8093E100EE
:1009F00049D28091DA0080FF18C08091D80080FF32
:100A000014C08091DA008E7F8093DA008091D90043
:100A100080FF8FC080E189BD82E189BD09B400FEFD
:100A2000FDCF81E0809304012DD28091E10080FF11
:100A300018C08091E20080FF14C08091E2008E7F98
:100A40008093E2008091E20080618093E2008091D7
:100A5000D80080628093D80019BC85E0809304019F
:100A600011D28091E10084FF28C08091E20084FFD0
:100A700024C080E189BD82E189BD09B400FEFDCFBB
:100A80008091D8008F7D8093D8008091E1008F7E87
:100A90008093E1008091E2008F7E8093E20080915C
:100AA000E20081608093E20080910301882309F4D1
:100AB00045C084E080930401E5D18091E10083FF8B
:100AC00027C08091E20083FF23C08091E100877FEF
:100AD0008093E10082E080930401109203018091F1
:100AE000E1008E7F8093E1008091E2008E7F809311
:100AF000E2008091E20080618093E20042E260E0E7
:100B000080E077DE8091F00088608093F000BAD1B9
:100B1000FF91EF91BF91AF919F918F917F916F91D5
:100B20005F914F913F912F910F900FBE0F901F90AB
:100B3000189519BC10920401A5D177CF8091E300DC
:100B400087FD02C081E0B6CF83E0B4CF1F920F9241
:100B50000FB60F9211242F933F934F935F936F9390
:100B60007F938F939F93AF93BF93CF93DF93EF9335
:100B7000FF93D091E900DF708091EC00C82FC17025
:100B800080FDC0E81092E9008091F000877F80939B
:100B9000F00078941ED01092E9008091F0008860F7
:100BA0008093F000CD2BCF70C093E900FF91EF91BF
:100BB000DF91CF91BF91AF919F918F917F916F9175
:100BC0005F914F913F912F910F900FBE0F901F900B
:100BD00018951F93CF93DF93CDB7DEB7AA970FB6C3
:100BE000F894DEBF0FBECDBF85E091E0FC01019619
:100BF0002091F100208321E08D309207B9F7A2DB2C
:100C00008091E80083FF10C080910501909106015A
:100C1000953009F4C1C000F5292F2D7F213009F44A
:100C200088C0992309F45DC08091E80083FF0AC061
:100C30008091E800877F8093E8008091EB008062DC
:100C40008093EB00AA960FB6F894DEBF0FBECDBF1F
:100C5000DF91CF911F910895983009F4D4C0993055
:100C600009F4DEC0963001F780588230E8F68091B2
:100C70000701909108018C3D23E0920709F0AEC076
:100C800083E08A838AE289834FB7F894DE01139662
:100C900020E03EE051E2E32FF0E0509357008491D2
:100CA00020FF03C082958F703F5F8F708A3008F4F9
:100CB00093C0895C90E08D939D932F5F243159F709
:100CC0004FBF8091E800877F8093E8006AE270E080
:100CD000CE010196D9DC8091E8008B778093E80003
:100CE000A3CF803899F0823809F09ECF8091090116
:100CF0008F70873008F098CF8093E9008091EB00E7
:100D000085FB882780F91092E90006C080910201D6
:100D100090910101911182609091E800977F9093EA
:100D2000E8008093F1001092F1008091E8008E7746
:100D3000A5C0882309F492C0823009F075CF809154
:100D40000701811196C0809109018F702FEF280F44
:100D5000263008F069CF8093E9002091EB0020FF56
:100D600088C0933031F48091EB0080628093EB0077
:100D700080C09091EB0090619093EB0021E030E017
:100D800001C0220F8A95EAF72093EA001092EA0048
:100D90008091EB008860EACF811146CF1091070166
:100DA0001F778091E3008078812B8093E30080910E
:100DB000E800877F8093E80050DD8091E80080FFA5
:100DC000FCCF8091E30080688093E30082E0111102
:100DD00083E08093040128CF805D6CCF609109018E
:100DE00070910A01AE014F5F5F4F83DBBC01892B1D
:100DF00009F41ACF8091E800877F8093E800898109
:100E00009A819CDC68CF803809F00ECF8091E80091
:100E1000877F8093E800809103018093F10085CF64
:100E2000811102CF90910701923008F0FDCE8091A0
:100E3000E800877F8093E800909303010EDD8091A6
:100E40000301882311F084E005C08091E30087FD51
:100E5000FACF81E080930401F0DAE6CE80910701B9
:100E6000813009F0E1CE81E0933009F080E0809399
:100E700001011092E9008091E800877F8093E800EB
:100E8000ECDCD2CE0895CF9380910401882399F0B1
:100E9000C091E900CF709091EC00892F817090FD96
:100EA00080E8C82B1092E9008091E80083FD91DE74
:100EB000CF70C093E900CF91089594EA9093BC005D
:100EC00094E6699FB0011124AB0120E034EA41159A
:100ED000510509F442C0222331F08093BB0084E81D
:100EE0008093BC0027C09091BC0097FF0AC09091EE
:100EF000B900987F903121F0983351F0983059F42F
:100F000021E095E39A95F1F7000041505109DFCFB8
:100F10003093BC00DCCF84E08093BC0081E0089576
:100F20008091BC0087FD10C085E38A95F1F7000031
:100F3000615071096115710599F783E0089584E99D
:100F40008093BC0084E008958091B900887F883147
:100F500011F08034A1F780E0089584E08093BC0014
:100F600082E00895AA1BBB1B51E107C0AA1FBB1F4B
:100F7000A617B70710F0A61BB70B881F991F5A9525
:100F8000A9F780959095BC01CD010895F894FFCF05
:00000001FF
